:100000000C942A000C9434000C9434000C943400AA
:100010000C9434000C9434000C9434000C94340090
:100020000C9434000C9434000C9434000C94340080
:100030000C9434000C9434000C9434000C94340070
:100040000C9434000C9434000C9434000C94340060
:100050000C94340011241FBECFE5D8E0DEBFCDBF25
:100060000E9410020C943B020C9400004F3FD1F50B
:100070008230B9F0833020F4813009F071C006C0BD
:100080008330D1F0843009F06BC021C02AB381E005
:1000900090E002C0880F991F6A95E2F7282B2ABBCF
:1000A000089527B381E090E002C0880F991F6A95F8
:1000B000E2F7282B27BB089524B381E090E002C02B
:1000C000880F991F6A95E2F7282B24BB089521B366
:1000D00081E090E002C0880F991F6A95E2F7282B13
:1000E00021BB0895442309F03BC08230B1F0833036
:1000F00018F48130A9F505C08330D9F0843081F53A
:1001000024C02AB381E090E002C0880F991F6A954D
:10011000E2F7809582238ABB089527B381E090E0BF
:1001200002C0880F991F6A95E2F78095822387BBEA
:10013000089524B381E090E002C0880F991F6A956A
:10014000E2F78095822384BB089521B381E090E09B
:1001500002C0880F991F6A95E2F78095822381BBC0
:1001600008954130D1F58230B9F0833020F48130E8
:1001700009F071C006C08330D1F0843009F06BC043
:1001800021C02BB381E090E002C0880F991F6A95CF
:10019000E2F7282B2BBB089528B381E090E002C042
:1001A000880F991F6A95E2F7282B28BB089525B37D
:1001B00081E090E002C0880F991F6A95E2F7282B32
:1001C00025BB089522B381E090E002C0880F991FFB
:1001D0006A95E2F7282B22BB0895442309F03BC01F
:1001E0008230B1F0833018F48130A9F505C0833036
:1001F000D9F0843081F524C02BB381E090E002C0B7
:10020000880F991F6A95E2F7809582238BBB08952A
:1002100028B381E090E002C0880F991F6A95E2F749
:100220008095822388BB089525B381E090E002C0C9
:10023000880F991F6A95E2F78095822385BB089500
:1002400022B381E090E002C0880F991F6A95E2F71F
:100250008095822382BB0895823061F0833018F448
:100260008130D9F405C0833039F08430B1F40DC049
:1002700089B303C086B301C083B390E002C09595F3
:1002800087956A95E2F78170089580B390E002C087
:10029000959587956A95E2F7817008958230A9F067
:1002A000833018F4813089F505C08330C9F084307B
:1002B00061F521C02BB381E090E002C0880F991F47
:1002C0006A95E2F728272BBB089528B381E090E0D8
:1002D00002C0880F991F6A95E2F7282728BB089566
:1002E00025B381E090E002C0880F991F6A95E2F77C
:1002F000282725BB089522B381E090E002C0880F33
:10030000991F6A95E2F7282722BB0895823061F091
:10031000833018F4813069F405C0833039F08430BB
:1003200041F406C06BBB089568BB089565BB089592
:1003300062BB0895823061F0833018F4813069F433
:1003400005C0833039F0843041F406C06ABB08959B
:1003500067BB089564BB089561BB0895823099F02E
:10036000833018F4813051F505C08330A9F0843012
:1003700029F51BC0662319F48AB38F7002C08AB3B3
:10038000806F8ABB0895662319F487B38F7002C00B
:1003900087B3806F87BB0895662319F484B38F7089
:1003A00002C084B3806F84BB0895662321F481B3B7
:1003B0008F7081BB089581B3806F81BB08958230B7
:1003C00099F0833018F4813051F505C08330A9F0DD
:1003D000843029F51BC0662319F48AB3807F02C0DC
:1003E0008AB38F608ABB0895662319F487B3807F30
:1003F00002C087B38F6087BB0895662319F484B366
:10040000807F02C084B38F6084BB0895662321F48B
:1004100081B3807F81BB089581B38F6081BB0895D4
:100420000F931F93CF93DF9381E06FEF0E949A01A8
:10043000C0E0D0E008EC10E00DC081E06C2F41E09E
:100440000E94B10088E893E1F8013197F1F7019734
:10045000D9F72196C830D10584F381E060E00E948D
:10046000860188E893E1F8013197F1F70197D9F710
:0A047000C0E0D0E0EFCFF894FFCF1A
:00000001FF
